:400000000080002011000000B5040000B504000080B500AF00F082FA80B500AF284B12221A6000F0FDFD274B180000F029FE012000F006FE302000F047FC234B234A1A60D0
:40004000234B8022D2051A60224B224A126802210A431A60204B214A1A60214B00221A60204B204A126808218A431A60FA23DB00180000F01FFD1C4B180000F071FD1B4B6C
:400080001B4A1A601B4B1C4A1A601C4B1C4A1A60184B1C4A1A601C4B802212061A601B4B802212031A601A4B40221A60194B80221A60074B8022D2051A60C046BD4680BD13
:4000C00030001040001BB70004010B40060000800C020B4078002E407C002E406A2D000064F02E406CF02E40DC05000000030140007FBB000000014040FF008000040140E8
:400100008037010080FF008008010B4000010B402C0101400401014080B582B000AF72B6384B00221A60FB1D00221A7022E0FB1D1A7813005B009B185B00334A9B183B60A0
:400140003B681A78597809020A43997809040A43DB781B06134318003B681A795B791B0213439BB2190000F03FF9FB1D1A78FB1D01321A70FB1D1B78012BD8D9234A244BE6
:400180001100180000F040F9224B234A1A60234BCC2292031A60224B992212041A60214B992212041A60204BA42212061A601F4A1E4B1B78DBB23C218B43DBB214210B43CF
:4001C000DBB213701A4A1A4B1B78DBB216210B43DBB21370174B20221A60174B174A1A60174B20221A60174B30221A60164BD82292021A60FFF710FF00F048F9C046BD4622
:4002000002B080BD6CF02E40F8160000141700000417000000000240000099EE0001024000500F4010500F4018500F4001700F4000700F4000000440080004400010DB00A6
:4002400018000440000104400801044010B5064C2378002B07D1054B002B02D0044800E000BF0123237010BD5801002000000000E8160000084B10B5002B03D007490848F2
:4002800000E000BF07480368002B00D110BD064B002BFBD09847F9E7000000005C010020E8160000C80000200000000080B582B000AF104B04221A600FE00F4B1B68591C61
:4002C0000D4A1160FA1D12781A700B4B1A680B4B9A4202D3084B0A4A1A6000F0B9FA0200FB1D1A70FB1D1B78002BE6D1C046BD4602B080BDC00F2440D00000208802002072
:400300000802002080B500AF054B1A68054B1B68D31A5A1E9341DBB21800BD4680BDC046D0000020CC00002080B582B000AFFB1D00221A70154B1B68591C144A11601A7877
:40034000134B1A70114B1A68124B9A4202D30F4B114A1A600E4B1B780D2B09D10F4B1B6800221A70FB1D1A78FB1D01321A7007E00A4B1B68591C094A1160054A12781A7019
:40038000FB1D1B781800BD4602B080BDCC000020780100208802002008020020D400002080B500AF62B600F0B9F90B4B180000F039F9FFF7A7FF031EFBD0FFF7B5FF031EBA
:4003C000F7D0064A0649074B180000F069FD054B180000F05DFAECE7AD02000088020020EC1600008801002080B582B000AF786039603A687B680021180000F048FDC046D1
:40040000BD4602B080BDC04680B586B000AF7860396000233B6100237B612FE07B699B007A68D3181B68BB600F23FB18BA681A70BB68FF229343BB6018E03B695B003A68C3
:40044000D3181B781A00BB68D31819003B695B003A68D3185B780B703B6901333B610F23FB181A780F23FB18013A1A700F23FB181B78002BE1D17B6901337B617B69032BD3
:40048000CCD9C046BD4606B080BDC04680B500AF054B03221A60054B03221A60044B00221A60C046BD4680BD3000304030003140000E3F4080B500AF00F0B4FC03001B68CA
:4004C0000C2B00D1FEE7FEE780B584B000AF7860104B1A687B68D3181A000F4BD21A8023DB009A4209DC0B4B1B68FB60094B1A687B68D218074B1A6007E000F093FC0300E4
:400500000C221A6001235B42FB60FB681800BD4604B080BDD80000201003002080B586B000AF224B7B61224B3B61204B7B6135E03B691B68FB603B695B68BB603B699B68EA
:400540003B6000237B600CE0FB681A68BB681A60BB680433BB60FB680433FB607B6804337B607A683B689A42EED13B69DB683B6000237B6008E0BB6800221A60BB68043374
:40058000BB607B6804337B607A683B689A42F2D13B6910333B617B69013B7B617B69002BC6D100F045FCFFF7FBFEFEE7010000001018000080B582B000AF154B144A126866
:4005C00001218A431A6000237B600FE07B68032B04D8104B7A689200D35800E00E4B0F4A796889008B507B6801337B607B682F2BECD9FFF791FD0A4B00221A60044B044AE1
:40060000126801210A431A60C046BD4602B080BD0000104000000000B504000000000020C000002080B582B000AF786000F050F87B68180000F00AF8032000F015F800F033
:400640003BF8C046BD4602B080BDC04680B582B000AF7860034B7A685A66C046BD4602B080BDC0460000002090B585B000AF0200FB1D1A700E23FB600B23FC1800F009FBBE
:40068000030023700A4B0A4A12680A491140FA1D1078FA68904002000A431A600B23FB181B78180000F0F9FAC046BD4605B090BD08E400E0FF3FFFFF80B500AF034B80228D
:4006C00092001A60C046BD4680BDC04600E100E080B500AF034B802292001A60C046BD4680BDC04680E100E080B500AF00F036F8C046BD4680BDC04680B500AF064B064AA1
:400700001268802109060A431A6000F019F800F01DF8C046BD4680BD0000244080B500AF064B1B78002B04D1FFF7DEFF034B01221A70FFF7E1FFC046BD4680BD7A010020CB
:4007400080B500AFC046BD4680BDC04680B500AF00F064F8C046BD4680BDC04680B500AF1B4B1C4A1A601C4B00221A601B4B01221A601B4B1B4A1A601B4B07221A601B4BE9
:4007800000221A601A4B01221A601A4B154A1A60194B00221A60194B04221A60184B00221A60184B00221A60174B00221A60174B00221A60164B04221A60164B00221A6061
:4007C000144B1B689AB2144B1A80C046BD4680BD000024400F00000240002440480024400003244007000080040324401003244044002440000224400402244050002440CB
:40080000880E2440C80E2440480F2440080F2440C80F2440880F24407C01002080B500AF074B074A126807490A40902109040A431A60054B054A12881A60C046BD4680BD62
:4008400000000240FFFF0FFF880F24407C01002080B582B000AF00237B6000F031FA031E03D000F01DFA03007B60084B1A68D8239B00134005D000237B60044BD82292001E
:400880001A607B681800BD4602B080BDC00F244080B584B000AF78600023FB6009E07A68FB68D3181B78180000F01AFAFB680133FB607A68FB68D3181B78002BEFD1C046C2
:4008C000BD4604B080BDC04690B585B000AF78600C23FC1800F0DDF9030023707B68022B00D8B3E07B68302B00D9AFE05E4B1B78DBB21A007B689A420AD35C4A0F23FB18D3
:4009000012781A705A4A0E23FB1812781A703FE0584B1B78DBB21A007B689A420AD3564A0F23FB1812781A70544A0E23FB1812781A702DE0524B1B78DBB21A007B689A427D
:400940000AD3504A0F23FB1812781A704E4A0E23FB1812781A701BE04C4B1B78DBB21A007B689A420AD34A4A0F23FB1812781A70484A0E23FB1812781A7009E0464A0F23CD
:40098000FB1812781A70454A0E23FB1812781A707B68DA1E0B23FB1841498A5C1A700B23FB181B782F2B0DD97B682A2B0AD93D4B19221A60052000F063F90D23FB181922B8
:4009C0001A7007E0374B1B68DAB20D23FB183F210A401A700B23FA180D23FB1812781B789A4208D22F4B7A68033A2D498A5C1A60052000F045F97B68284A9A180A23FB181F
:400A000012781A70284B0A22BA1812781A60274B0F22BA1812781A60254B0E22BA1812781A60052000F09CF80B23FA180D23FB1812781B789A420CD91A4B7A68033A18494F
:400A40008A5C1A60052000F01BF902E0002000F07BF80C23FB181B78180000F01EF9C046BD4605B090BDC04640F3FF0F41F3FF0F42F3FF0F43F3FF0F44F3FF0F45F3FF0FEE
:400A800046F3FF0F47F3FF0F48F3FF0F49F3FF0F4AF3FF0F4BF3FF0F4CF3FF0F4DF3FF0F881700002CFF0B4028FF0B401CFF0B4020FF0B4080B584B000AF78600023FB601D
:400AC000154B154A126801210A431A60134B144A1A60144B134A1268802109020A431A607B68002B12D01023FB600CE0012000F037F800F019F8031E02D00023FB6005E0F4
:400B00007B68013B7B607B68002BEFD1FB681800BD4604B080BDC04660F02E4078002E400220000010002E4080B582B000AF054B1B68012213407B607B681800BD4602B04A
:400B400080BDC0460C002E4080B582B000AF0200FB1D1A7001BEC046BD4602B080BDC04680B582B000AF0200BB1D1A80BB1D1B88044A12785343180000F082F8C046BD4643
:400B800002B080BDE400002080B500AF0F4B0F4A126801218A431A600C4B0C4A126802218A431A600A4B0A4A126830218A4310210A431A60064B064A126807218A430121CC
:400BC0000A431A60C046BD4680BDC04600F02E4000FF2E4080B500AF0F4B0F4A126802218A431A600D4B0D4A126807218A4302210A431A60094B094A126830218A43202114
:400C00000A431A60044B044A126801210A431A60C046BD4680BDC04600F02E4000FF2E4080B500AFFFF7B0FF044B044A1268802109060A431A60C046BD4680BD00F02E401B
:400C400080B584B000AF78600C4B1B6801221340FB607B68002B02D0012B03D005E0FFF793FF06E0FFF7B6FF03E00020FFF76CFFC046FB681800BD4604B080BD00F02E40C5
:400C80000230800803D00138FDD1C046C046C0467047EFF3108072B6704780F31088704780B582B000AF00237B60044B1B687B607B681800BD4602B080BDC0464003244069
:400CC00080B582B000AF054B1B681F2213407B607B681800BD4602B080BDC0460803244080B582B000AF7860C046064B1B681F221340082BF9D0044B7A681A60C046BD462E
:400D000002B080BD0802244040022440002243088B4274D303098B425FD3030A8B4244D3030B8B4228D3030C8B420DD3FF22090212BA030C8B4202D31212090265D0030B86
:400D40008B4219D300E0090AC30B8B4201D3CB03C01A5241830B8B4201D38B03C01A5241430B8B4201D34B03C01A5241030B8B4201D30B03C01A5241C30A8B4201D3CB02E4
:400D8000C01A5241830A8B4201D38B02C01A5241430A8B4201D34B02C01A5241030A8B4201D30B02C01A5241CDD2C3098B4201D3CB01C01A524183098B4201D38B01C01AF6
:400DC000524143098B4201D34B01C01A524103098B4201D30B01C01A5241C3088B4201D3CB00C01A524183088B4201D38B00C01A524143088B4201D34B00C01A5241411ACD
:400E000000D20146524110467047FFE701B5002000F006F802BDC0460029F7D076E770477047C046014B18687047C046500100200E4B70B500251E000D4CE41AA410A5421C
:400E400004D0AB00F35898470135F8E700F0CEFC084B00251E00084CE41AA410A54204D0AB00F35898470135F8E770BDF8170000F8170000F817000000180000002310B55F
:400E80009A4203D0CC5CC4540133F9E710BD03008218934202D019700133FAE7704700000EB410B59DB002A9029008610B48822488604861012040421FABC881084804CBF0
:400EC000A400006801938C8100F06EF80023029A13701DB010BC08BC03B01847FFFFFF7F50010020F0B58E6885B007000C00039201939E4243D890238A89DB001A423ED03F
:400F000003250969236801985B1A029363695D43EB0F5D19029B6D1001331B18AB4200D91D00530510D52900380000F037FB061E14D0029A2169FFF7A1FFA289194B134043
:400F400080221343A38112E02A00380000F086FB061E0CD12169380000F0D4FA0C23402201203B60A38940421343A38117E0029B2661F61826606561019EED1AA560019BDE
:400F8000B34200D21E0032000399206800F0A5FA0020A3689B1BA36023689E19266005B0F0BDC0467FFBFFFFF0B59FB0029005938B890F0016001B0610D50B69002B0DD101
:400FC000402100F0EBFA38603861002804D10C23029A01381360D8E040237B61002306AD6B6120336B761033AB7634002378002B03D1A31B049312D003E0252BF9D00134AF
:40100000F4E7A31B320039000298FFF76BFF431C00D1B4E06A69049B944663446B612378002B00D1ABE00122002352426A6002A95432521801342B60EB60AB601370AB6525
:40104000534E21780522300000F03CFA002807D00123801B83402A68013413432B60EFE72B68DA0604D55322202102A8121811701A0704D553222B2102A8121811702278B9
:401080002A2A03D0099B00200A210EE0059A111D12680591002A01DB099204E05242EA60022213432B6001340BE02278303A092A04D84B4301349B180120F6E7002800D048
:4010C000099323782E2B1ED163782A2B0AD1059B02341A1D1B680592002B01DA01235B42079310E000230A201A0001346B6021783039092904D84243013452180123F6E752
:40110000002B00D00792234E21780322300000F0D9F9002806D04023801B83402A68013413432B60217806221B48661C297600F0C9F9002812D0194B002B06D10722059B63
:40114000073393430833059314E005AB00933A00134B2900029800E000BF07E005AB00933A000F4B2900029800F08AF80390039B013304D06B69039A9B186B6135E7BB89DF
:401180000B985B0601D5012040421FB0F0BDC046B8170000BE170000C217000000000000E50E0000F7B5170001938A680B6900900C00934200DA130022003B6043321278E9
:4011C000002A01D001333B6023689B0602D53B6802333B60062523681D401ED0230043331B785A1E9341226892061CD53020E1184331087021005A1C45310978A218433231
:40120000023311700FE022000123193201990098089EB047431C0ED00135E3683A689B1A9D42F0DBDAE72200019943320098089DA847431C02D10120404220E00623206846
:40124000E1683A6803400025042B03D18D1AEB43DB171D40A3682269934201DD9B1AED180027BD420AD0220001231A3201990098089EB047431CDED00137F2E70020FEBD97
:40128000F0B58BB006920A0043320793059004920A7E0C00109B6E2A00D1ABE011D8632A22D009D8002A00D1B5E0582A00D0C5E045310A70814A4FE0642A1DD0692A1BD08C
:4012C000BCE0732A00D1AAE009D86F2A29D0702A00D0B3E0202209680A43226037E0752A1FD0782A33D0A9E00E001A684236111D196013683370A4E021681A68080606D451
:40130000490604D5111D19600023D55E02E0111D19601568002D3BDA2D23049A6D42137036E021681A68080606D4490604D51568111D1960ADB202E0111D196015685F4BBC
:40134000227E039308276F2A1DD00A271BE022007821453211705A4A19680392081D226818600D68100602D4500600D5ADB2D30702D520231A4322601027002D03D1202389
:4013800022689A4322602300002243331A7002E00A274A4B03936368A360002B09DB0422216891432160002D05D1049E002B11D07BE0002D79D0049E28003900FFF72CFD3C
:4013C000039B013E5B5C280033703900FFF79EFC051EF1D1082F09D12368DB0706D563682269934202DC3023013E3370049B9B1B23612BE009681A68080607D4490605D560
:40140000111D19601368A28A1A8004E0111D1960136862691A600023049E236116E01A68111D1960166800216268300000F04AF8002801D0801B6060636803E026004236A6
:401440003270012323610023049A1370079B09AA00932100069B0598FFF7A4FE431C02D10120404227E02369320006990598079DA847431CF4D0236800259B070FD4099B9A
:40148000E068984217DA180015E022000123193206990598079EB047431CE1D00135E368099A9B1A9D42F0DBE9E72600039B42361B7833708EE70BB0F0BDC046C91700000B
:4014C000DA170000C9B28218904204D003788B4202D00130F8E70020704710B5884202D98B18984201D3002305E09B1A013A08D3995C8154FAE7934203D0CC5CC4540133EA
:40150000F9E710BD70B50500002944D00C1F2368002B00DAE418280000F0D8F81E4A13681100002B02D16360146031E0A3420DD92268A018834203D118685B6882182260B9
:4015400063600C6024E0A24203D813005A68002AF9D11E689819A0420BD12168711858181960824214D110685268411819605A600EE0A04202D90C232B6009E0216860180A
:40158000824203D1106852684118216062605C60280000F09CF870BD84010020032370B5CD1C9D43083506000C2D01D20C2501E0002D01DBA94202D90C23336048E030002D
:4015C00000F084F8234B1C681A002100002913D00B685B1B0DD40B2B02D90B60CC181EE08C4202D1636813601AE04B6863600C0016E00C004968E9E7174C2368002B03D153
:40160000300000F051F820602900300000F04CF8431C18D00323C41C9C43A0420DD12560300000F054F8200007220B30231D9043C31A0ED05A42E2500BE0211A300000F0F1
:4016400033F8431CEBD10C233000336000F03FF8002070BD8401002080010020F8B506000C001500002904D11100FFF797FF040018E0002A03D1FFF745FF2C0012E000F0C7
:4016800027F885420ED929003000FFF787FF071E07D021002A00FFF7F1FB21003000FFF731FF3C002000F8BD002370B5064C050008002360FEF708FF431C03D12368002BC8
:4016C00000D02B6070BDC04608030020704770470B1F1A68101F002A04DA891804390B68D018043870470000000000006563686F2C2025730D0A000000300F400004004057
:401700000F40000420320F4012330F4006410F4002600F400A050E0116042E023001320434024020410546124750482C49FF4AFF4BFF4DA04F045018528058045A045B045E
:401740005F01604062C06440654066C068C06AC06CC06EC0051006020F2017801D321F0445204F8056025750778085028704C0C0C220C480D020D2105F0463028705D6C039
:40178000E240E61001011001030405060708090A0B0C0E0F101112131415161718191B1C1D1E1F2021222325262728292A2B2E2F3031323334354300232D302B2000686C2C
:4017C0004C00656667454647003031323334353637383941424344454600303132333435363738396162636465660000F8B5C046F8BC08BC9E46704775020000B50500009E
:40180000F8B5C046F8BC08BC9E4670474D02000020180000C800002090000000B8010000000000000802002008020020880200201003002000366E01C05D0000180000001F
:401840000000E02E010000000000000000000000000000000000000000000000000000000000000000000000B617000000000000000000000000000000000000000000008C
:4018800000000000000000000000000000000000000000000000000000000000000000000000000000000000F0000020000000000000000000000000000000000000000018
:4018C00000000000000000000000000000000000000000000000000000000000000000000000000000000000000000000000000000000000000000000000000000000000E8
:4019000000000000000000000000000000000000000000000000000000000000000000000000000000000000000000000000000000000000000000000000000000000000A7
:401940000000000000000000000000000000000000000000000000000000000000000000000000000000000000000000000000000000000000000000000000000000000067
:401980000000000000000000000000000000000000000000000000000000000000000000000000000000000000000000000000000000000000000000000000000000000027
:020000040003F7
:0200000490303A
:02000000E2DA42
:0200000490402A
:4000000000000000000000000000000000000000000000000000000000000000000000000000000000000000000000000000000000000000000000000000000000000000C0
:400040000000000000000000000000000000000000000000000000000000000000000000000000000000000000000000000000000000000000000000000000000000000080
:0200000490501A
:0C00000000021A6B11AA00011A72F484AD
:0200000490600A
:0100000001FE
:00000001FF